{
  "contractName": "RockPaperScissors",
  "abi": [
    {
      "inputs": [],
      "stateMutability": "nonpayable",
      "type": "constructor"
    },
    {
      "stateMutability": "payable",
      "type": "fallback",
      "payable": true
    },
    {
      "inputs": [
        {
          "internalType": "address",
          "name": "",
          "type": "address"
        }
      ],
      "name": "balances",
      "outputs": [
        {
          "internalType": "uint256",
          "name": "",
          "type": "uint256"
        }
      ],
      "stateMutability": "view",
      "type": "function",
      "constant": true
    },
    {
      "inputs": [
        {
          "internalType": "uint256",
          "name": "",
          "type": "uint256"
        }
      ],
      "name": "games",
      "outputs": [
        {
          "internalType": "uint256",
          "name": "local_id",
          "type": "uint256"
        },
        {
          "internalType": "bool",
          "name": "is_active",
          "type": "bool"
        },
        {
          "internalType": "bool",
          "name": "accepted",
          "type": "bool"
        },
        {
          "internalType": "address",
          "name": "player1",
          "type": "address"
        },
        {
          "internalType": "bytes32",
          "name": "player1_move",
          "type": "bytes32"
        },
        {
          "internalType": "address",
          "name": "player2",
          "type": "address"
        },
        {
          "internalType": "string",
          "name": "player2_move",
          "type": "string"
        },
        {
          "internalType": "uint256",
          "name": "timer",
          "type": "uint256"
        },
        {
          "internalType": "uint256",
          "name": "pot",
          "type": "uint256"
        },
        {
          "internalType": "uint256",
          "name": "rollover_pot",
          "type": "uint256"
        },
        {
          "internalType": "address",
          "name": "winner",
          "type": "address"
        }
      ],
      "stateMutability": "view",
      "type": "function",
      "constant": true
    },
    {
      "inputs": [],
      "name": "global_id",
      "outputs": [
        {
          "internalType": "uint256",
          "name": "",
          "type": "uint256"
        }
      ],
      "stateMutability": "view",
      "type": "function",
      "constant": true
    },
    {
      "inputs": [
        {
          "internalType": "address",
          "name": "",
          "type": "address"
        }
      ],
      "name": "in_game",
      "outputs": [
        {
          "internalType": "bool",
          "name": "",
          "type": "bool"
        }
      ],
      "stateMutability": "view",
      "type": "function",
      "constant": true
    },
    {
      "stateMutability": "payable",
      "type": "receive",
      "payable": true
    },
    {
      "inputs": [],
      "name": "deposit",
      "outputs": [],
      "stateMutability": "payable",
      "type": "function",
      "payable": true
    },
    {
      "inputs": [],
      "name": "withdraw",
      "outputs": [],
      "stateMutability": "payable",
      "type": "function",
      "payable": true
    },
    {
      "inputs": [
        {
          "internalType": "address",
          "name": "player2",
          "type": "address"
        },
        {
          "internalType": "bytes32",
          "name": "hashed_move",
          "type": "bytes32"
        },
        {
          "internalType": "uint256",
          "name": "rollover_id",
          "type": "uint256"
        }
      ],
      "name": "start_game",
      "outputs": [],
      "stateMutability": "nonpayable",
      "type": "function"
    },
    {
      "inputs": [
        {
          "internalType": "uint256",
          "name": "game_id",
          "type": "uint256"
        },
        {
          "internalType": "string",
          "name": "move",
          "type": "string"
        }
      ],
      "name": "accept",
      "outputs": [],
      "stateMutability": "nonpayable",
      "type": "function"
    },
    {
      "inputs": [
        {
          "internalType": "uint256",
          "name": "game_id",
          "type": "uint256"
        },
        {
          "internalType": "string",
          "name": "move",
          "type": "string"
        },
        {
          "internalType": "uint64",
          "name": "secret_key",
          "type": "uint64"
        }
      ],
      "name": "eval_winner",
      "outputs": [],
      "stateMutability": "nonpayable",
      "type": "function"
    },
    {
      "inputs": [
        {
          "internalType": "uint256",
          "name": "game_id",
          "type": "uint256"
        }
      ],
      "name": "check_timer",
      "outputs": [
        {
          "internalType": "uint256",
          "name": "time_remaining",
          "type": "uint256"
        }
      ],
      "stateMutability": "nonpayable",
      "type": "function"
    }
  ],
  "bytecode": "0x608060405234801561001057600080fd5b50670de0b6b3a76400006004819055506127e98061002f6000396000f3fe6080604052600436106100955760003560e01c806396270bf91161005957806396270bf91461017e578063b1b65222146101a7578063d0e30db0146101e4578063d326036e146101ee578063ec2175f1146102195761009c565b8063117a5b901461009e57806320ae375e146100e557806327e235e31461010e5780633ccfd60b1461014b5780633d243e8b146101555761009c565b3661009c57005b005b3480156100aa57600080fd5b506100c560048036038101906100c09190611962565b610256565b6040516100dc9b9a99989796959493929190611aac565b60405180910390f35b3480156100f157600080fd5b5061010c60048036038101906101079190611cd3565b6103b2565b005b34801561011a57600080fd5b5061013560048036038101906101309190611d6e565b610c8d565b6040516101429190611d9b565b60405180910390f35b610153610ca5565b005b34801561016157600080fd5b5061017c60048036038101906101779190611db6565b610e4f565b005b34801561018a57600080fd5b506101a560048036038101906101a09190611e3e565b611173565b005b3480156101b357600080fd5b506101ce60048036038101906101c99190611d6e565b611506565b6040516101db9190611e91565b60405180910390f35b6101ec611526565b005b3480156101fa57600080fd5b50610203611676565b6040516102109190611d9b565b60405180910390f35b34801561022557600080fd5b50610240600480360381019061023b9190611962565b61167c565b60405161024d9190611d9b565b60405180910390f35b60006020528060005260406000206000915090508060000154908060010160009054906101000a900460ff16908060010160019054906101000a900460ff16908060010160029054906101000a900473ffffffffffffffffffffffffffffffffffffffff16908060020154908060030160009054906101000a900473ffffffffffffffffffffffffffffffffffffffff16908060040180546102f790611edb565b80601f016020809104026020016040519081016040528092919081815260200182805461032390611edb565b80156103705780601f1061034557610100808354040283529160200191610370565b820191906000526020600020905b81548152906001019060200180831161035357829003601f168201915b5050505050908060050154908060060154908060070154908060080160009054906101000a900473ffffffffffffffffffffffffffffffffffffffff1690508b565b6001151560008085815260200190815260200160002060010160019054906101000a900460ff161515146103e557600080fd5b60008084815260200190815260200160002060010160029054906101000a900473ffffffffffffffffffffffffffffffffffffffff1673ffffffffffffffffffffffffffffffffffffffff163373ffffffffffffffffffffffffffffffffffffffff1614610488576040517f08c379a000000000000000000000000000000000000000000000000000000000815260040161047f90611f7f565b60405180910390fd5b6000808481526020019081526020016000206002015482826040516020016104b1929190612011565b6040516020818303038152906040528051906020012014610507576040517f08c379a00000000000000000000000000000000000000000000000000000000081526004016104fe90612085565b60405180910390fd5b600080600085815260200190815260200160002060010160029054906101000a900473ffffffffffffffffffffffffffffffffffffffff169050600080600086815260200190815260200160002060030160009054906101000a900473ffffffffffffffffffffffffffffffffffffffff1690506000846000808881526020019081526020016000206004016040516020016105a4929190612180565b604051602081830303815290604052905060006040518060400160405280600881526020017f726f636b726f636b000000000000000000000000000000000000000000000000815250805190602001208280519060200120148061064a57506040518060400160405280600a81526020017f7061706572706170657200000000000000000000000000000000000000000000815250805190602001208280519060200120145b8061069757506040518060400160405280601081526020017f73636973736f727373636973736f727300000000000000000000000000000000815250805190602001208280519060200120145b156107e857600090506000606460326000808b8152602001908152602001600020600601546106c691906121d3565b6106d0919061225c565b9050806000808a81526020019081526020016000206006018190555060646032826106fb91906121d3565b610705919061225c565b600160008773ffffffffffffffffffffffffffffffffffffffff1673ffffffffffffffffffffffffffffffffffffffff1681526020019081526020016000206000828254610753919061228d565b92505081905550606460328261076991906121d3565b610773919061225c565b600160008673ffffffffffffffffffffffffffffffffffffffff1673ffffffffffffffffffffffffffffffffffffffff16815260200190815260200160002060008282546107c1919061228d565b92505081905550806000808a81526020019081526020016000206007018190555050610b52565b6040518060400160405280600c81526020017f726f636b73636973736f72730000000000000000000000000000000000000000815250805190602001208280519060200120148061087b57506040518060400160405280600d81526020017f73636973736f7273706170657200000000000000000000000000000000000000815250805190602001208280519060200120145b806108c857506040518060400160405280600981526020017f7061706572726f636b0000000000000000000000000000000000000000000000815250805190602001208280519060200120145b1561099e5783905060008088815260200190815260200160002060060154600160008673ffffffffffffffffffffffffffffffffffffffff1673ffffffffffffffffffffffffffffffffffffffff168152602001908152602001600020600082825461093491906122c1565b92505081905550670de0b6b3a7640000600160008573ffffffffffffffffffffffffffffffffffffffff1673ffffffffffffffffffffffffffffffffffffffff1681526020019081526020016000206000828254610992919061228d565b92505081905550610b51565b6040518060400160405280600d81526020017f706170657273636973736f7273000000000000000000000000000000000000008152508051906020012082805190602001201480610a3157506040518060400160405280600981526020017f726f636b70617065720000000000000000000000000000000000000000000000815250805190602001208280519060200120145b80610a7e57506040518060400160405280600c81526020017f73636973736f7273726f636b0000000000000000000000000000000000000000815250805190602001208280519060200120145b15610b505782905060008088815260200190815260200160002060060154600160008573ffffffffffffffffffffffffffffffffffffffff1673ffffffffffffffffffffffffffffffffffffffff1681526020019081526020016000206000828254610aea91906122c1565b92505081905550670de0b6b3a7640000600160008673ffffffffffffffffffffffffffffffffffffffff1673ffffffffffffffffffffffffffffffffffffffff1681526020019081526020016000206000828254610b48919061228d565b925050819055505b5b5b8060008089815260200190815260200160002060080160006101000a81548173ffffffffffffffffffffffffffffffffffffffff021916908373ffffffffffffffffffffffffffffffffffffffff160217905550600080600089815260200190815260200160002060010160006101000a81548160ff0219169083151502179055506000600260008673ffffffffffffffffffffffffffffffffffffffff1673ffffffffffffffffffffffffffffffffffffffff16815260200190815260200160002060006101000a81548160ff0219169083151502179055506000600260008573ffffffffffffffffffffffffffffffffffffffff1673ffffffffffffffffffffffffffffffffffffffff16815260200190815260200160002060006101000a81548160ff02191690831515021790555050505050505050565b60016020528060005260406000206000915090505481565b6000600160003373ffffffffffffffffffffffffffffffffffffffff1673ffffffffffffffffffffffffffffffffffffffff1681526020019081526020016000205411610d27576040517f08c379a0000000000000000000000000000000000000000000000000000000008152600401610d1e90612363565b60405180910390fd5b60001515600260003373ffffffffffffffffffffffffffffffffffffffff1673ffffffffffffffffffffffffffffffffffffffff16815260200190815260200160002060009054906101000a900460ff16151514610dba576040517f08c379a0000000000000000000000000000000000000000000000000000000008152600401610db1906123cf565b60405180910390fd5b600160003373ffffffffffffffffffffffffffffffffffffffff1673ffffffffffffffffffffffffffffffffffffffff16815260200190815260200160002054341115610e0657600080fd5b3373ffffffffffffffffffffffffffffffffffffffff166108fc349081150290604051600060405180830381858888f19350505050158015610e4c573d6000803e3d6000fd5b50565b600454600160003373ffffffffffffffffffffffffffffffffffffffff1673ffffffffffffffffffffffffffffffffffffffff168152602001908152602001600020541015610ed3576040517f08c379a0000000000000000000000000000000000000000000000000000000008152600401610eca90612461565b60405180910390fd5b60008083815260200190815260200160002060010160029054906101000a900473ffffffffffffffffffffffffffffffffffffffff1673ffffffffffffffffffffffffffffffffffffffff163373ffffffffffffffffffffffffffffffffffffffff161415610f77576040517f08c379a0000000000000000000000000000000000000000000000000000000008152600401610f6e906124f3565b60405180910390fd5b60008083815260200190815260200160002060030160009054906101000a900473ffffffffffffffffffffffffffffffffffffffff1673ffffffffffffffffffffffffffffffffffffffff163373ffffffffffffffffffffffffffffffffffffffff161461101a576040517f08c379a00000000000000000000000000000000000000000000000000000000081526004016110119061255f565b60405180910390fd5b60006110258361167c565b90506001151560008085815260200190815260200160002060010160009054906101000a900460ff16151514611090576040517f08c379a0000000000000000000000000000000000000000000000000000000008152600401611087906125cb565b60405180910390fd5b8160008085815260200190815260200160002060040190805190602001906110b9929190611875565b50600160008085815260200190815260200160002060010160016101000a81548160ff021916908315150217905550600454600080858152602001908152602001600020600601600082825461110f91906122c1565b925050819055506001600260003373ffffffffffffffffffffffffffffffffffffffff1673ffffffffffffffffffffffffffffffffffffffff16815260200190815260200160002060006101000a81548160ff021916908315150217905550505050565b60036000815480929190611186906125eb565b919050555060001515600080600354815260200190815260200160002060010160009054906101000a900460ff161515146111f6576040517f08c379a00000000000000000000000000000000000000000000000000000000081526004016111ed90612680565b60405180910390fd5b600454600160003373ffffffffffffffffffffffffffffffffffffffff1673ffffffffffffffffffffffffffffffffffffffff16815260200190815260200160002054101561127a576040517f08c379a0000000000000000000000000000000000000000000000000000000008152600401611271906126ec565b60405180910390fd5b6000670de0b6b3a76400009050600082146114625760008083815260200190815260200160002060010160029054906101000a900473ffffffffffffffffffffffffffffffffffffffff1673ffffffffffffffffffffffffffffffffffffffff163373ffffffffffffffffffffffffffffffffffffffff1614806113ca575060008083815260200190815260200160002060030160009054906101000a900473ffffffffffffffffffffffffffffffffffffffff1673ffffffffffffffffffffffffffffffffffffffff163373ffffffffffffffffffffffffffffffffffffffff161480156113c9575060008083815260200190815260200160002060030160009054906101000a900473ffffffffffffffffffffffffffffffffffffffff1673ffffffffffffffffffffffffffffffffffffffff168473ffffffffffffffffffffffffffffffffffffffff16145b5b80611435575060008083815260200190815260200160002060010160029054906101000a900473ffffffffffffffffffffffffffffffffffffffff1673ffffffffffffffffffffffffffffffffffffffff168473ffffffffffffffffffffffffffffffffffffffff16145b61143e57600080fd5b600080838152602001908152602001600020600701548161145f91906122c1565b90505b611470600354338684611753565b82600080600354815260200190815260200160002060020181905550426000806003548152602001908152602001600020600501819055506001600260003373ffffffffffffffffffffffffffffffffffffffff1673ffffffffffffffffffffffffffffffffffffffff16815260200190815260200160002060006101000a81548160ff02191690831515021790555050505050565b60026020528060005260406000206000915054906101000a900460ff1681565b600454341461156a576040517f08c379a000000000000000000000000000000000000000000000000000000000815260040161156190612461565b60405180910390fd5b34600160003373ffffffffffffffffffffffffffffffffffffffff1673ffffffffffffffffffffffffffffffffffffffff16815260200190815260200160002060008282546115b991906122c1565b9250508190555060003073ffffffffffffffffffffffffffffffffffffffff16346040516115e690612732565b60006040518083038185875af1925050503d8060008114611623576040519150601f19603f3d011682016040523d82523d6000602084013e611628565b606091505b505090506001151581151514611673576040517f08c379a000000000000000000000000000000000000000000000000000000000815260040161166a90612793565b60405180910390fd5b50565b60035481565b60008060008084815260200190815260200160002060050154905060006202a300826116a891906122c1565b90508042111561173d5760009250600080600086815260200190815260200160002060010160006101000a81548160ff0219169083151502179055503060008086815260200190815260200160002060080160006101000a81548173ffffffffffffffffffffffffffffffffffffffff021916908373ffffffffffffffffffffffffffffffffffffffff16021790555061174c565b4281611749919061228d565b92505b5050919050565b8360008086815260200190815260200160002060000181905550600160008086815260200190815260200160002060010160006101000a81548160ff0219169083151502179055508260008086815260200190815260200160002060010160026101000a81548173ffffffffffffffffffffffffffffffffffffffff021916908373ffffffffffffffffffffffffffffffffffffffff1602179055508160008086815260200190815260200160002060030160006101000a81548173ffffffffffffffffffffffffffffffffffffffff021916908373ffffffffffffffffffffffffffffffffffffffff16021790555080600080868152602001908152602001600020600601600082825461186891906122c1565b9250508190555050505050565b82805461188190611edb565b90600052602060002090601f0160209004810192826118a357600085556118ea565b82601f106118bc57805160ff19168380011785556118ea565b828001600101855582156118ea579182015b828111156118e95782518255916020019190600101906118ce565b5b5090506118f791906118fb565b5090565b5b808211156119145760008160009055506001016118fc565b5090565b6000604051905090565b600080fd5b600080fd5b6000819050919050565b61193f8161192c565b811461194a57600080fd5b50565b60008135905061195c81611936565b92915050565b60006020828403121561197857611977611922565b5b60006119868482850161194d565b91505092915050565b6119988161192c565b82525050565b60008115159050919050565b6119b38161199e565b82525050565b600073ffffffffffffffffffffffffffffffffffffffff82169050919050565b60006119e4826119b9565b9050919050565b6119f4816119d9565b82525050565b6000819050919050565b611a0d816119fa565b82525050565b600081519050919050565b600082825260208201905092915050565b60005b83811015611a4d578082015181840152602081019050611a32565b83811115611a5c576000848401525b50505050565b6000601f19601f8301169050919050565b6000611a7e82611a13565b611a888185611a1e565b9350611a98818560208601611a2f565b611aa181611a62565b840191505092915050565b600061016082019050611ac2600083018e61198f565b611acf602083018d6119aa565b611adc604083018c6119aa565b611ae9606083018b6119eb565b611af6608083018a611a04565b611b0360a08301896119eb565b81810360c0830152611b158188611a73565b9050611b2460e083018761198f565b611b3261010083018661198f565b611b4061012083018561198f565b611b4e6101408301846119eb565b9c9b505050505050505050505050565b600080fd5b600080fd5b7f4e487b7100000000000000000000000000000000000000000000000000000000600052604160045260246000fd5b611ba082611a62565b810181811067ffffffffffffffff82111715611bbf57611bbe611b68565b5b80604052505050565b6000611bd2611918565b9050611bde8282611b97565b919050565b600067ffffffffffffffff821115611bfe57611bfd611b68565b5b611c0782611a62565b9050602081019050919050565b82818337600083830152505050565b6000611c36611c3184611be3565b611bc8565b905082815260208101848484011115611c5257611c51611b63565b5b611c5d848285611c14565b509392505050565b600082601f830112611c7a57611c79611b5e565b5b8135611c8a848260208601611c23565b91505092915050565b600067ffffffffffffffff82169050919050565b611cb081611c93565b8114611cbb57600080fd5b50565b600081359050611ccd81611ca7565b92915050565b600080600060608486031215611cec57611ceb611922565b5b6000611cfa8682870161194d565b935050602084013567ffffffffffffffff811115611d1b57611d1a611927565b5b611d2786828701611c65565b9250506040611d3886828701611cbe565b9150509250925092565b611d4b816119d9565b8114611d5657600080fd5b50565b600081359050611d6881611d42565b92915050565b600060208284031215611d8457611d83611922565b5b6000611d9284828501611d59565b91505092915050565b6000602082019050611db0600083018461198f565b92915050565b60008060408385031215611dcd57611dcc611922565b5b6000611ddb8582860161194d565b925050602083013567ffffffffffffffff811115611dfc57611dfb611927565b5b611e0885828601611c65565b9150509250929050565b611e1b816119fa565b8114611e2657600080fd5b50565b600081359050611e3881611e12565b92915050565b600080600060608486031215611e5757611e56611922565b5b6000611e6586828701611d59565b9350506020611e7686828701611e29565b9250506040611e878682870161194d565b9150509250925092565b6000602082019050611ea660008301846119aa565b92915050565b7f4e487b7100000000000000000000000000000000000000000000000000000000600052602260045260246000fd5b60006002820490506001821680611ef357607f821691505b60208210811415611f0757611f06611eac565b5b50919050565b7f6f6e6c7920706c6179657220312063616e2072657665616c20746865206f757460008201527f636f6d6500000000000000000000000000000000000000000000000000000000602082015250565b6000611f69602483611a1e565b9150611f7482611f0d565b604082019050919050565b60006020820190508181036000830152611f9881611f5c565b9050919050565b600081905092915050565b6000611fb582611a13565b611fbf8185611f9f565b9350611fcf818560208601611a2f565b80840191505092915050565b60008160c01b9050919050565b6000611ff382611fdb565b9050919050565b61200b61200682611c93565b611fe8565b82525050565b600061201d8285611faa565b91506120298284611ffa565b6008820191508190509392505050565b7f72657665616c206e6f7420657175616c20746f20636f6d6d6974000000000000600082015250565b600061206f601a83611a1e565b915061207a82612039565b602082019050919050565b6000602082019050818103600083015261209e81612062565b9050919050565b600081519050919050565b600081905092915050565b60006120c6826120a5565b6120d081856120b0565b93506120e0818560208601611a2f565b80840191505092915050565b60008190508160005260206000209050919050565b6000815461210e81611edb565b61211881866120b0565b94506001821660008114612133576001811461214457612177565b60ff19831686528186019350612177565b61214d856120ec565b60005b8381101561216f57815481890152600182019150602081019050612150565b838801955050505b50505092915050565b600061218c82856120bb565b91506121988284612101565b91508190509392505050565b7f4e487b7100000000000000000000000000000000000000000000000000000000600052601160045260246000fd5b60006121de8261192c565b91506121e98361192c565b9250817fffffffffffffffffffffffffffffffffffffffffffffffffffffffffffffffff0483118215151615612222576122216121a4565b5b828202905092915050565b7f4e487b7100000000000000000000000000000000000000000000000000000000600052601260045260246000fd5b60006122678261192c565b91506122728361192c565b9250826122825761228161222d565b5b828204905092915050565b60006122988261192c565b91506122a38361192c565b9250828210156122b6576122b56121a4565b5b828203905092915050565b60006122cc8261192c565b91506122d78361192c565b9250827fffffffffffffffffffffffffffffffffffffffffffffffffffffffffffffffff0382111561230c5761230b6121a4565b5b828201905092915050565b7f6e6f2062616c616e636520746f20776974686472617700000000000000000000600082015250565b600061234d601683611a1e565b915061235882612317565b602082019050919050565b6000602082019050818103600083015261237c81612340565b9050919050565b7f63616e2774207769746864726177207768696c6520696e20612067616d650000600082015250565b60006123b9601e83611a1e565b91506123c482612383565b602082019050919050565b600060208201905081810360008301526123e8816123ac565b9050919050565b7f6e6f7420656e6f75676820657468657220746f20656e7465722074686520676160008201527f6d65000000000000000000000000000000000000000000000000000000000000602082015250565b600061244b602283611a1e565b9150612456826123ef565b604082019050919050565b6000602082019050818103600083015261247a8161243e565b9050919050565b7f63616e277420706c617920616761696e737420796f757273656c662064756d6d60008201527f7900000000000000000000000000000000000000000000000000000000000000602082015250565b60006124dd602183611a1e565b91506124e882612481565b604082019050919050565b6000602082019050818103600083015261250c816124d0565b9050919050565b7f6e6f742074686520636f727265637420706c6179657232000000000000000000600082015250565b6000612549601783611a1e565b915061255482612513565b602082019050919050565b600060208201905081810360008301526125788161253c565b9050919050565b7f67616d65206973206e6f206c6f6e676572206163746976650000000000000000600082015250565b60006125b5601883611a1e565b91506125c08261257f565b602082019050919050565b600060208201905081810360008301526125e4816125a8565b9050919050565b60006125f68261192c565b91507fffffffffffffffffffffffffffffffffffffffffffffffffffffffffffffffff821415612629576126286121a4565b5b600182019050919050565b7f67616d6520697320616c72656164792061637469766500000000000000000000600082015250565b600061266a601683611a1e565b915061267582612634565b602082019050919050565b600060208201905081810360008301526126998161265d565b9050919050565b7f62616c616e636520746f6f206c6f7720746f20737461727420612067616d6500600082015250565b60006126d6601f83611a1e565b91506126e1826126a0565b602082019050919050565b60006020820190508181036000830152612705816126c9565b9050919050565b50565b600061271c6000836120b0565b91506127278261270c565b600082019050919050565b600061273d8261270f565b9150819050919050565b7f73656e64206661696c6564000000000000000000000000000000000000000000600082015250565b600061277d600b83611a1e565b915061278882612747565b602082019050919050565b600060208201905081810360008301526127ac81612770565b905091905056fea26469706673582212204267881f2768780b627880f1aafcf19e04fa127b865175f615d2260e258a24a364736f6c634300080a0033",
  "immutableReferences": {},
  "source": "pragma solidity ^0.8.10;\npragma experimental ABIEncoderV2; \n\n//03/15 time worked: 1835 hours -- 2013 hours \n//03/16 time worked: 1801 -- 2038 hours \n//03/17 time worked: 1757 --\n\n\ncontract RockPaperScissors {\n\n    struct Game {\n        uint local_id; //stores each game locally so mulitple can be played at once\n        bool is_active;\n\t\tbool accepted; //lets player1 know that player2 has moved  \n        address player1;\n        bytes32 player1_move; //a hashed secret move\n        address player2;\n        string player2_move; //not hashed, no need since the game resolves after player2 moves  uint pot; //the size of the pot\n        uint timer; //timer is stores locally as well  \n\t\tuint pot; \n\t\tuint rollover_pot; \n        address winner; //to read for later if needed  \n    }\n\n\n    mapping(uint => Game) public games;\n    mapping(address => uint) public balances;\n\tmapping(address => bool) public in_game; \n    uint public global_id;  \n    uint min_bet;\n\n    constructor() {\n        min_bet = 1 ether;\n    }\n\n\n    function deposit() external payable {\n        require(msg.value == min_bet, \"not enough ether to enter the game\"); //I think this evaluates to 1e18?  \n\n        balances[msg.sender] += msg.value;\n\n        //I believe call is the current best way to do this?    \n        (bool sent, ) = address(this).call{value: msg.value}(\"\");\n        require(sent == true, \"send failed\");\n\n    }\n\n\tfunction withdraw() external payable {\n\t\trequire(balances[msg.sender] > 0, \"no balance to withdraw\"); \n\t\trequire(in_game[msg.sender] == false, \"can't withdraw while in a game\"); \n\t\trequire(msg.value <= balances[msg.sender]);  \n\t\t\n\t\t//balances are updated at eval \t\n\t\tpayable(msg.sender).transfer(msg.value); \t\n\t}\n\n\t//the player you're challenging, your move, a secret key, and rollover game id from a previous game, if any \n    function start_game(address player2, bytes32 hashed_move, uint rollover_id) external {\n        //increment global game count  \n        global_id++;\n\n        require(games[global_id].is_active == false, \"game is already active\");\n        require(balances[msg.sender] >= min_bet, \"balance too low to start a game\");\n\n\t\tuint pot_size = 1 ether;  \n\t\t//check if there is rollover from a draw \n\t\tif (rollover_id != 0) {\n\t\t\trequire(msg.sender == games[rollover_id].player1 || msg.sender == games[rollover_id].player2 && \n\t\t\t\t\tplayer2 == games[rollover_id].player2 || player2 == games[rollover_id].player1); \n\n\t\t\tpot_size += games[rollover_id].rollover_pot; \n\t\t}\t\n\n        update_game(global_id, msg.sender, player2, pot_size);\n\t\t\n\n        //assign the move to the game id \n\t\tgames[global_id].player1_move = hashed_move; \n\n        //start timer after we check if ether sent, if challenged player does not accept then we send the ether back to the player \n        games[global_id].timer = block.timestamp;\n\t\tin_game[msg.sender] = true; \n    }\n\n    function accept(uint game_id, string memory move) external {\n        require(balances[msg.sender] >= min_bet, \"not enough ether to enter the game\");\n        require(msg.sender != games[game_id].player1, \"can't play against yourself dummy\"); \n\t\trequire(msg.sender == games[game_id].player2, \"not the correct player2\"); \n\n        uint time_remaining = check_timer(game_id); //check to see that the timer is not over the 48 hour mark  \n        require(games[game_id].is_active == true, \"game is no longer active\");\n\t\t\n\t\t//player 2's move does not need to be secret since they are going second \n\t\tgames[game_id].player2_move = move;\n\t\tgames[game_id].accepted = true; \t\n\t\tgames[game_id].pot += min_bet; //update by 1 ether  \n\t\tin_game[msg.sender] = true; \n    }\n\n\tfunction eval_winner(uint game_id, string memory move, uint64 secret_key) external {\n\t\trequire(games[game_id].accepted == true);\t\n\t\trequire(msg.sender == games[game_id].player1, \"only player 1 can reveal the outcome\"); \n\t\trequire( \n\t\t\t\tkeccak256(abi.encodePacked(move, secret_key)) == games[game_id].player1_move,\n\t\t\t\t\"reveal not equal to commit\"\n\t\t\t   ); \n\n\t\t\t   address player1 = games[game_id].player1;\n\t\t\t   address player2 = games[game_id].player2;\n\n\t\t\t   bytes memory eval = bytes.concat(bytes(move), bytes(games[game_id].player2_move));\n\n\t\t\t  address winner;\n\t\t\t\t\n\t\t\t  //check the encoded bytes to see who won \n\t\t\t  if(keccak256(eval) == keccak256(bytes(\"rockrock\")) || \n\t\t\t\tkeccak256(eval) == keccak256(bytes(\"paperpaper\")) || \n\t\t\t\tkeccak256(eval) == keccak256(bytes(\"scissorsscissors\"))) {\n\n\t\t\t\t\twinner = address(0);\n\n\t\t\t\t\t//half of pot rolls over, half is left to send back to p1 and p2 \n\t\t\t\t\tuint half = (games[game_id].pot * 50) / 100;\n\t\t\t\t\t//update by half of pot in case there is more than one rollover pot \n\t\t\t\t\tgames[game_id].pot = half; \n\t\t\t\t\tbalances[player1] -= (half * 50) / 100; \n\t\t\t\t\tbalances[player2] -= (half * 50) / 100; \n\n\t\t\t\t\tgames[game_id].rollover_pot = half; \n\n\t\t\t  } else if \n\t\t\t\t(keccak256(eval) == keccak256(bytes(\"rockscissors\")) || \n\t\t\t \tkeccak256(eval) == keccak256(bytes(\"scissorspaper\")) || \n\t\t\t\tkeccak256(eval) == keccak256(bytes(\"paperrock\"))) {\n\n\t\t\t\t\twinner = player1;  \n\t\t\t\t\tbalances[player1] += games[game_id].pot; \n\t\t\t\t\tbalances[player2] -= 1 ether; \n\n\n\t\t\t  } else if \n\t\t\t\t(keccak256(eval) == keccak256(bytes(\"paperscissors\")) || \n\t\t\t \tkeccak256(eval) == keccak256(bytes(\"rockpaper\")) || \n\t\t\t\tkeccak256(eval) == keccak256(bytes(\"scissorsrock\"))) {\n\n\t\t\t\t\twinner = player2;  \n\t\t\t\t\tbalances[player2] += games[game_id].pot; \n\t\t\t\t\tbalances[player1] -= 1 ether; \n\n\t\t\t\t}\n\t\t\t\t\n\t\t\t\t//final game update that closes out the game\n\t\t\t\tgames[game_id].winner = winner; \n\t\t\t\tgames[game_id].is_active = false; \n\t\t\t\tin_game[player1] = false; \n\t\t\t\tin_game[player2] = false; \n\t}\n\n    //update struct in another func \n    function update_game(uint game_id,\n                         address p1,\n                         address p2,\n                         uint pot_size) internal {\n\n                        games[game_id].local_id = game_id;\n                        games[game_id].is_active = true;\n                        games[game_id].player1 = p1;\n                        games[game_id].player2 = p2;\n                        games[game_id].pot += pot_size;\n    }\n\n    function check_timer(uint game_id) public returns(uint time_remaining) {\n\n        uint start_time = games[game_id].timer;\n        uint end_time = start_time + 48 hours;\n        if (block.timestamp > end_time) {\n            time_remaining = 0;\n            games[game_id].is_active = false;\n\t\t\tgames[game_id].winner = address(this); //just set to anything other than p1, p2, or 0 address so p1 can withdraw \n        } else {\n            time_remaining =  end_time - block.timestamp;\n        }\n\n        return time_remaining;\n    }\n\n    receive() external payable {}\n\n    fallback() external payable {}\n\n\n\n}\n\n",
  "sourcePath": "/home/kevin/Code/solidity_projects/lindy_labs/contracts/rps.sol",
  "compiler": {
    "name": "solc",
    "version": "0.8.10+commit.fc410830.Emscripten.clang"
  },
  "schemaVersion": "3.4.3",
  "updatedAt": "2022-03-18T22:22:22.094Z",
  "networkType": "ethereum",
  "devdoc": {
    "kind": "dev",
    "methods": {},
    "version": 1
  },
  "userdoc": {
    "kind": "user",
    "methods": {},
    "version": 1
  }
}