{
  "contractName": "RockPaperScissors",
  "abi": [
    {
      "inputs": [],
      "stateMutability": "nonpayable",
      "type": "constructor"
    },
    {
      "stateMutability": "payable",
      "type": "fallback",
      "payable": true
    },
    {
      "inputs": [
        {
          "internalType": "address",
          "name": "",
          "type": "address"
        }
      ],
      "name": "balances",
      "outputs": [
        {
          "internalType": "uint256",
          "name": "",
          "type": "uint256"
        }
      ],
      "stateMutability": "view",
      "type": "function",
      "constant": true
    },
    {
      "inputs": [
        {
          "internalType": "uint256",
          "name": "",
          "type": "uint256"
        }
      ],
      "name": "games",
      "outputs": [
        {
          "internalType": "uint256",
          "name": "local_id",
          "type": "uint256"
        },
        {
          "internalType": "bool",
          "name": "is_active",
          "type": "bool"
        },
        {
          "internalType": "bool",
          "name": "accepted",
          "type": "bool"
        },
        {
          "internalType": "address",
          "name": "player1",
          "type": "address"
        },
        {
          "internalType": "uint256",
          "name": "player1_move",
          "type": "uint256"
        },
        {
          "internalType": "address",
          "name": "player2",
          "type": "address"
        },
        {
          "internalType": "string",
          "name": "player2_move",
          "type": "string"
        },
        {
          "internalType": "uint256",
          "name": "timer",
          "type": "uint256"
        },
        {
          "internalType": "uint256",
          "name": "pot",
          "type": "uint256"
        },
        {
          "internalType": "uint256",
          "name": "rollover_pot",
          "type": "uint256"
        },
        {
          "internalType": "address",
          "name": "winner",
          "type": "address"
        }
      ],
      "stateMutability": "view",
      "type": "function",
      "constant": true
    },
    {
      "inputs": [],
      "name": "global_id",
      "outputs": [
        {
          "internalType": "uint256",
          "name": "",
          "type": "uint256"
        }
      ],
      "stateMutability": "view",
      "type": "function",
      "constant": true
    },
    {
      "inputs": [
        {
          "internalType": "address",
          "name": "",
          "type": "address"
        }
      ],
      "name": "in_game",
      "outputs": [
        {
          "internalType": "bool",
          "name": "",
          "type": "bool"
        }
      ],
      "stateMutability": "view",
      "type": "function",
      "constant": true
    },
    {
      "stateMutability": "payable",
      "type": "receive",
      "payable": true
    },
    {
      "inputs": [],
      "name": "deposit",
      "outputs": [],
      "stateMutability": "payable",
      "type": "function",
      "payable": true
    },
    {
      "inputs": [],
      "name": "withdraw",
      "outputs": [],
      "stateMutability": "payable",
      "type": "function",
      "payable": true
    },
    {
      "inputs": [
        {
          "internalType": "address",
          "name": "player2",
          "type": "address"
        },
        {
          "internalType": "string",
          "name": "move",
          "type": "string"
        },
        {
          "internalType": "uint64",
          "name": "secret_key",
          "type": "uint64"
        },
        {
          "internalType": "uint256",
          "name": "rollover_id",
          "type": "uint256"
        }
      ],
      "name": "start_game",
      "outputs": [],
      "stateMutability": "nonpayable",
      "type": "function"
    },
    {
      "inputs": [
        {
          "internalType": "uint256",
          "name": "game_id",
          "type": "uint256"
        },
        {
          "internalType": "string",
          "name": "move",
          "type": "string"
        }
      ],
      "name": "accept",
      "outputs": [],
      "stateMutability": "nonpayable",
      "type": "function"
    },
    {
      "inputs": [
        {
          "internalType": "uint256",
          "name": "game_id",
          "type": "uint256"
        },
        {
          "internalType": "string",
          "name": "move",
          "type": "string"
        },
        {
          "internalType": "uint64",
          "name": "secret_key",
          "type": "uint64"
        }
      ],
      "name": "eval_winner",
      "outputs": [],
      "stateMutability": "nonpayable",
      "type": "function"
    },
    {
      "inputs": [
        {
          "internalType": "uint256",
          "name": "game_id",
          "type": "uint256"
        }
      ],
      "name": "check_timer",
      "outputs": [
        {
          "internalType": "uint256",
          "name": "time_remaining",
          "type": "uint256"
        }
      ],
      "stateMutability": "nonpayable",
      "type": "function"
    }
  ],
  "bytecode": "0x608060405234801561001057600080fd5b50670de0b6b3a76400006004819055506128138061002f6000396000f3fe6080604052600436106100955760003560e01c80633d243e8b116100595780633d243e8b1461017e578063b1b65222146101a7578063d0e30db0146101e4578063d326036e146101ee578063ec2175f1146102195761009c565b8063117a5b901461009e57806320ae375e146100e5578063221ab09e1461010e57806327e235e3146101375780633ccfd60b146101745761009c565b3661009c57005b005b3480156100aa57600080fd5b506100c560048036038101906100c091906119a1565b610256565b6040516100dc9b9a99989796959493929190611ad2565b60405180910390f35b3480156100f157600080fd5b5061010c60048036038101906101079190611cf9565b6103b2565b005b34801561011a57600080fd5b5061013560048036038101906101309190611d94565b610c90565b005b34801561014357600080fd5b5061015e60048036038101906101599190611e17565b611015565b60405161016b9190611e44565b60405180910390f35b61017c61102d565b005b34801561018a57600080fd5b506101a560048036038101906101a09190611e5f565b6111d7565b005b3480156101b357600080fd5b506101ce60048036038101906101c99190611e17565b6114fb565b6040516101db9190611ebb565b60405180910390f35b6101ec61151b565b005b3480156101fa57600080fd5b5061020361166b565b6040516102109190611e44565b60405180910390f35b34801561022557600080fd5b50610240600480360381019061023b91906119a1565b611671565b60405161024d9190611e44565b60405180910390f35b60006020528060005260406000206000915090508060000154908060010160009054906101000a900460ff16908060010160019054906101000a900460ff16908060010160029054906101000a900473ffffffffffffffffffffffffffffffffffffffff16908060020154908060030160009054906101000a900473ffffffffffffffffffffffffffffffffffffffff16908060040180546102f790611f05565b80601f016020809104026020016040519081016040528092919081815260200182805461032390611f05565b80156103705780601f1061034557610100808354040283529160200191610370565b820191906000526020600020905b81548152906001019060200180831161035357829003601f168201915b5050505050908060050154908060060154908060070154908060080160009054906101000a900473ffffffffffffffffffffffffffffffffffffffff1690508b565b6001151560008085815260200190815260200160002060010160019054906101000a900460ff161515146103e557600080fd5b60008084815260200190815260200160002060010160029054906101000a900473ffffffffffffffffffffffffffffffffffffffff1673ffffffffffffffffffffffffffffffffffffffff163373ffffffffffffffffffffffffffffffffffffffff1614610488576040517f08c379a000000000000000000000000000000000000000000000000000000000815260040161047f90611fa9565b60405180910390fd5b6000808481526020019081526020016000206002015482826040516020016104b192919061203b565b6040516020818303038152906040528051906020012060001c1461050a576040517f08c379a0000000000000000000000000000000000000000000000000000000008152600401610501906120af565b60405180910390fd5b600080600085815260200190815260200160002060010160029054906101000a900473ffffffffffffffffffffffffffffffffffffffff169050600080600086815260200190815260200160002060030160009054906101000a900473ffffffffffffffffffffffffffffffffffffffff1690506000846000808881526020019081526020016000206004016040516020016105a79291906121aa565b604051602081830303815290604052905060006040518060400160405280600881526020017f726f636b726f636b000000000000000000000000000000000000000000000000815250805190602001208280519060200120148061064d57506040518060400160405280600a81526020017f7061706572706170657200000000000000000000000000000000000000000000815250805190602001208280519060200120145b8061069a57506040518060400160405280601081526020017f73636973736f727373636973736f727300000000000000000000000000000000815250805190602001208280519060200120145b156107eb57600090506000606460326000808b8152602001908152602001600020600601546106c991906121fd565b6106d39190612286565b9050806000808a81526020019081526020016000206006018190555060646032826106fe91906121fd565b6107089190612286565b600160008773ffffffffffffffffffffffffffffffffffffffff1673ffffffffffffffffffffffffffffffffffffffff168152602001908152602001600020600082825461075691906122b7565b92505081905550606460328261076c91906121fd565b6107769190612286565b600160008673ffffffffffffffffffffffffffffffffffffffff1673ffffffffffffffffffffffffffffffffffffffff16815260200190815260200160002060008282546107c491906122b7565b92505081905550806000808a81526020019081526020016000206007018190555050610b55565b6040518060400160405280600c81526020017f726f636b73636973736f72730000000000000000000000000000000000000000815250805190602001208280519060200120148061087e57506040518060400160405280600d81526020017f73636973736f7273706170657200000000000000000000000000000000000000815250805190602001208280519060200120145b806108cb57506040518060400160405280600981526020017f7061706572726f636b0000000000000000000000000000000000000000000000815250805190602001208280519060200120145b156109a15783905060008088815260200190815260200160002060060154600160008673ffffffffffffffffffffffffffffffffffffffff1673ffffffffffffffffffffffffffffffffffffffff168152602001908152602001600020600082825461093791906122eb565b92505081905550670de0b6b3a7640000600160008573ffffffffffffffffffffffffffffffffffffffff1673ffffffffffffffffffffffffffffffffffffffff168152602001908152602001600020600082825461099591906122b7565b92505081905550610b54565b6040518060400160405280600d81526020017f706170657273636973736f7273000000000000000000000000000000000000008152508051906020012082805190602001201480610a3457506040518060400160405280600981526020017f726f636b70617065720000000000000000000000000000000000000000000000815250805190602001208280519060200120145b80610a8157506040518060400160405280600c81526020017f73636973736f7273726f636b0000000000000000000000000000000000000000815250805190602001208280519060200120145b15610b535782905060008088815260200190815260200160002060060154600160008573ffffffffffffffffffffffffffffffffffffffff1673ffffffffffffffffffffffffffffffffffffffff1681526020019081526020016000206000828254610aed91906122eb565b92505081905550670de0b6b3a7640000600160008673ffffffffffffffffffffffffffffffffffffffff1673ffffffffffffffffffffffffffffffffffffffff1681526020019081526020016000206000828254610b4b91906122b7565b925050819055505b5b5b8060008089815260200190815260200160002060080160006101000a81548173ffffffffffffffffffffffffffffffffffffffff021916908373ffffffffffffffffffffffffffffffffffffffff160217905550600080600089815260200190815260200160002060010160006101000a81548160ff0219169083151502179055506000600260008673ffffffffffffffffffffffffffffffffffffffff1673ffffffffffffffffffffffffffffffffffffffff16815260200190815260200160002060006101000a81548160ff0219169083151502179055506000600260008573ffffffffffffffffffffffffffffffffffffffff1673ffffffffffffffffffffffffffffffffffffffff16815260200190815260200160002060006101000a81548160ff02191690831515021790555050505050505050565b60036000815480929190610ca390612341565b919050555060001515600080600354815260200190815260200160002060010160009054906101000a900460ff16151514610d13576040517f08c379a0000000000000000000000000000000000000000000000000000000008152600401610d0a906123d6565b60405180910390fd5b600454600160003373ffffffffffffffffffffffffffffffffffffffff1673ffffffffffffffffffffffffffffffffffffffff168152602001908152602001600020541015610d97576040517f08c379a0000000000000000000000000000000000000000000000000000000008152600401610d8e90612442565b60405180910390fd5b6000670de0b6b3a7640000905060008214610f7f5760008083815260200190815260200160002060010160029054906101000a900473ffffffffffffffffffffffffffffffffffffffff1673ffffffffffffffffffffffffffffffffffffffff163373ffffffffffffffffffffffffffffffffffffffff161480610ee7575060008083815260200190815260200160002060030160009054906101000a900473ffffffffffffffffffffffffffffffffffffffff1673ffffffffffffffffffffffffffffffffffffffff163373ffffffffffffffffffffffffffffffffffffffff16148015610ee6575060008083815260200190815260200160002060030160009054906101000a900473ffffffffffffffffffffffffffffffffffffffff1673ffffffffffffffffffffffffffffffffffffffff168573ffffffffffffffffffffffffffffffffffffffff16145b5b80610f52575060008083815260200190815260200160002060010160029054906101000a900473ffffffffffffffffffffffffffffffffffffffff1673ffffffffffffffffffffffffffffffffffffffff168573ffffffffffffffffffffffffffffffffffffffff16145b610f5b57600080fd5b6000808381526020019081526020016000206007015481610f7c91906122eb565b90505b610f8d600354338784611748565b610f9a600354858561186a565b426000806003548152602001908152602001600020600501819055506001600260003373ffffffffffffffffffffffffffffffffffffffff1673ffffffffffffffffffffffffffffffffffffffff16815260200190815260200160002060006101000a81548160ff0219169083151502179055505050505050565b60016020528060005260406000206000915090505481565b6000600160003373ffffffffffffffffffffffffffffffffffffffff1673ffffffffffffffffffffffffffffffffffffffff16815260200190815260200160002054116110af576040517f08c379a00000000000000000000000000000000000000000000000000000000081526004016110a6906124ae565b60405180910390fd5b60001515600260003373ffffffffffffffffffffffffffffffffffffffff1673ffffffffffffffffffffffffffffffffffffffff16815260200190815260200160002060009054906101000a900460ff16151514611142576040517f08c379a00000000000000000000000000000000000000000000000000000000081526004016111399061251a565b60405180910390fd5b600160003373ffffffffffffffffffffffffffffffffffffffff1673ffffffffffffffffffffffffffffffffffffffff1681526020019081526020016000205434111561118e57600080fd5b3373ffffffffffffffffffffffffffffffffffffffff166108fc349081150290604051600060405180830381858888f193505050501580156111d4573d6000803e3d6000fd5b50565b600454600160003373ffffffffffffffffffffffffffffffffffffffff1673ffffffffffffffffffffffffffffffffffffffff16815260200190815260200160002054101561125b576040517f08c379a0000000000000000000000000000000000000000000000000000000008152600401611252906125ac565b60405180910390fd5b60008083815260200190815260200160002060010160029054906101000a900473ffffffffffffffffffffffffffffffffffffffff1673ffffffffffffffffffffffffffffffffffffffff163373ffffffffffffffffffffffffffffffffffffffff1614156112ff576040517f08c379a00000000000000000000000000000000000000000000000000000000081526004016112f69061263e565b60405180910390fd5b60008083815260200190815260200160002060030160009054906101000a900473ffffffffffffffffffffffffffffffffffffffff1673ffffffffffffffffffffffffffffffffffffffff163373ffffffffffffffffffffffffffffffffffffffff16146113a2576040517f08c379a0000000000000000000000000000000000000000000000000000000008152600401611399906126aa565b60405180910390fd5b60006113ad83611671565b90506001151560008085815260200190815260200160002060010160009054906101000a900460ff16151514611418576040517f08c379a000000000000000000000000000000000000000000000000000000000815260040161140f90612716565b60405180910390fd5b8160008085815260200190815260200160002060040190805190602001906114419291906118b4565b50600160008085815260200190815260200160002060010160016101000a81548160ff021916908315150217905550600454600080858152602001908152602001600020600601600082825461149791906122eb565b925050819055506001600260003373ffffffffffffffffffffffffffffffffffffffff1673ffffffffffffffffffffffffffffffffffffffff16815260200190815260200160002060006101000a81548160ff021916908315150217905550505050565b60026020528060005260406000206000915054906101000a900460ff1681565b600454341461155f576040517f08c379a0000000000000000000000000000000000000000000000000000000008152600401611556906125ac565b60405180910390fd5b34600160003373ffffffffffffffffffffffffffffffffffffffff1673ffffffffffffffffffffffffffffffffffffffff16815260200190815260200160002060008282546115ae91906122eb565b9250508190555060003073ffffffffffffffffffffffffffffffffffffffff16346040516115db9061275c565b60006040518083038185875af1925050503d8060008114611618576040519150601f19603f3d011682016040523d82523d6000602084013e61161d565b606091505b505090506001151581151514611668576040517f08c379a000000000000000000000000000000000000000000000000000000000815260040161165f906127bd565b60405180910390fd5b50565b60035481565b60008060008084815260200190815260200160002060050154905060006202a3008261169d91906122eb565b9050804211156117325760009250600080600086815260200190815260200160002060010160006101000a81548160ff0219169083151502179055503060008086815260200190815260200160002060080160006101000a81548173ffffffffffffffffffffffffffffffffffffffff021916908373ffffffffffffffffffffffffffffffffffffffff160217905550611741565b428161173e91906122b7565b92505b5050919050565b8360008086815260200190815260200160002060000181905550600160008086815260200190815260200160002060010160006101000a81548160ff0219169083151502179055508260008086815260200190815260200160002060010160026101000a81548173ffffffffffffffffffffffffffffffffffffffff021916908373ffffffffffffffffffffffffffffffffffffffff1602179055508160008086815260200190815260200160002060030160006101000a81548173ffffffffffffffffffffffffffffffffffffffff021916908373ffffffffffffffffffffffffffffffffffffffff16021790555080600080868152602001908152602001600020600601600082825461185d91906122eb565b9250508190555050505050565b818160405160200161187d92919061203b565b6040516020818303038152906040528051906020012060001c60008085815260200190815260200160002060020181905550505050565b8280546118c090611f05565b90600052602060002090601f0160209004810192826118e25760008555611929565b82601f106118fb57805160ff1916838001178555611929565b82800160010185558215611929579182015b8281111561192857825182559160200191906001019061190d565b5b509050611936919061193a565b5090565b5b8082111561195357600081600090555060010161193b565b5090565b6000604051905090565b600080fd5b600080fd5b6000819050919050565b61197e8161196b565b811461198957600080fd5b50565b60008135905061199b81611975565b92915050565b6000602082840312156119b7576119b6611961565b5b60006119c58482850161198c565b91505092915050565b6119d78161196b565b82525050565b60008115159050919050565b6119f2816119dd565b82525050565b600073ffffffffffffffffffffffffffffffffffffffff82169050919050565b6000611a23826119f8565b9050919050565b611a3381611a18565b82525050565b600081519050919050565b600082825260208201905092915050565b60005b83811015611a73578082015181840152602081019050611a58565b83811115611a82576000848401525b50505050565b6000601f19601f8301169050919050565b6000611aa482611a39565b611aae8185611a44565b9350611abe818560208601611a55565b611ac781611a88565b840191505092915050565b600061016082019050611ae8600083018e6119ce565b611af5602083018d6119e9565b611b02604083018c6119e9565b611b0f606083018b611a2a565b611b1c608083018a6119ce565b611b2960a0830189611a2a565b81810360c0830152611b3b8188611a99565b9050611b4a60e08301876119ce565b611b586101008301866119ce565b611b666101208301856119ce565b611b74610140830184611a2a565b9c9b505050505050505050505050565b600080fd5b600080fd5b7f4e487b7100000000000000000000000000000000000000000000000000000000600052604160045260246000fd5b611bc682611a88565b810181811067ffffffffffffffff82111715611be557611be4611b8e565b5b80604052505050565b6000611bf8611957565b9050611c048282611bbd565b919050565b600067ffffffffffffffff821115611c2457611c23611b8e565b5b611c2d82611a88565b9050602081019050919050565b82818337600083830152505050565b6000611c5c611c5784611c09565b611bee565b905082815260208101848484011115611c7857611c77611b89565b5b611c83848285611c3a565b509392505050565b600082601f830112611ca057611c9f611b84565b5b8135611cb0848260208601611c49565b91505092915050565b600067ffffffffffffffff82169050919050565b611cd681611cb9565b8114611ce157600080fd5b50565b600081359050611cf381611ccd565b92915050565b600080600060608486031215611d1257611d11611961565b5b6000611d208682870161198c565b935050602084013567ffffffffffffffff811115611d4157611d40611966565b5b611d4d86828701611c8b565b9250506040611d5e86828701611ce4565b9150509250925092565b611d7181611a18565b8114611d7c57600080fd5b50565b600081359050611d8e81611d68565b92915050565b60008060008060808587031215611dae57611dad611961565b5b6000611dbc87828801611d7f565b945050602085013567ffffffffffffffff811115611ddd57611ddc611966565b5b611de987828801611c8b565b9350506040611dfa87828801611ce4565b9250506060611e0b8782880161198c565b91505092959194509250565b600060208284031215611e2d57611e2c611961565b5b6000611e3b84828501611d7f565b91505092915050565b6000602082019050611e5960008301846119ce565b92915050565b60008060408385031215611e7657611e75611961565b5b6000611e848582860161198c565b925050602083013567ffffffffffffffff811115611ea557611ea4611966565b5b611eb185828601611c8b565b9150509250929050565b6000602082019050611ed060008301846119e9565b92915050565b7f4e487b7100000000000000000000000000000000000000000000000000000000600052602260045260246000fd5b60006002820490506001821680611f1d57607f821691505b60208210811415611f3157611f30611ed6565b5b50919050565b7f6f6e6c7920706c6179657220312063616e2072657665616c20746865206f757460008201527f636f6d6500000000000000000000000000000000000000000000000000000000602082015250565b6000611f93602483611a44565b9150611f9e82611f37565b604082019050919050565b60006020820190508181036000830152611fc281611f86565b9050919050565b600081905092915050565b6000611fdf82611a39565b611fe98185611fc9565b9350611ff9818560208601611a55565b80840191505092915050565b60008160c01b9050919050565b600061201d82612005565b9050919050565b61203561203082611cb9565b612012565b82525050565b60006120478285611fd4565b91506120538284612024565b6008820191508190509392505050565b7f72657665616c206e6f7420657175616c20746f20636f6d6d6974000000000000600082015250565b6000612099601a83611a44565b91506120a482612063565b602082019050919050565b600060208201905081810360008301526120c88161208c565b9050919050565b600081519050919050565b600081905092915050565b60006120f0826120cf565b6120fa81856120da565b935061210a818560208601611a55565b80840191505092915050565b60008190508160005260206000209050919050565b6000815461213881611f05565b61214281866120da565b9450600182166000811461215d576001811461216e576121a1565b60ff198316865281860193506121a1565b61217785612116565b60005b838110156121995781548189015260018201915060208101905061217a565b838801955050505b50505092915050565b60006121b682856120e5565b91506121c2828461212b565b91508190509392505050565b7f4e487b7100000000000000000000000000000000000000000000000000000000600052601160045260246000fd5b60006122088261196b565b91506122138361196b565b9250817fffffffffffffffffffffffffffffffffffffffffffffffffffffffffffffffff048311821515161561224c5761224b6121ce565b5b828202905092915050565b7f4e487b7100000000000000000000000000000000000000000000000000000000600052601260045260246000fd5b60006122918261196b565b915061229c8361196b565b9250826122ac576122ab612257565b5b828204905092915050565b60006122c28261196b565b91506122cd8361196b565b9250828210156122e0576122df6121ce565b5b828203905092915050565b60006122f68261196b565b91506123018361196b565b9250827fffffffffffffffffffffffffffffffffffffffffffffffffffffffffffffffff03821115612336576123356121ce565b5b828201905092915050565b600061234c8261196b565b91507fffffffffffffffffffffffffffffffffffffffffffffffffffffffffffffffff82141561237f5761237e6121ce565b5b600182019050919050565b7f67616d6520697320616c72656164792061637469766500000000000000000000600082015250565b60006123c0601683611a44565b91506123cb8261238a565b602082019050919050565b600060208201905081810360008301526123ef816123b3565b9050919050565b7f62616c616e636520746f6f206c6f7720746f20737461727420612067616d6500600082015250565b600061242c601f83611a44565b9150612437826123f6565b602082019050919050565b6000602082019050818103600083015261245b8161241f565b9050919050565b7f6e6f2062616c616e636520746f20776974686472617700000000000000000000600082015250565b6000612498601683611a44565b91506124a382612462565b602082019050919050565b600060208201905081810360008301526124c78161248b565b9050919050565b7f63616e2774207769746864726177207768696c6520696e20612067616d650000600082015250565b6000612504601e83611a44565b915061250f826124ce565b602082019050919050565b60006020820190508181036000830152612533816124f7565b9050919050565b7f6e6f7420656e6f75676820657468657220746f20656e7465722074686520676160008201527f6d65000000000000000000000000000000000000000000000000000000000000602082015250565b6000612596602283611a44565b91506125a18261253a565b604082019050919050565b600060208201905081810360008301526125c581612589565b9050919050565b7f63616e277420706c617920616761696e737420796f757273656c662064756d6d60008201527f7900000000000000000000000000000000000000000000000000000000000000602082015250565b6000612628602183611a44565b9150612633826125cc565b604082019050919050565b600060208201905081810360008301526126578161261b565b9050919050565b7f6e6f742074686520636f727265637420706c6179657232000000000000000000600082015250565b6000612694601783611a44565b915061269f8261265e565b602082019050919050565b600060208201905081810360008301526126c381612687565b9050919050565b7f67616d65206973206e6f206c6f6e676572206163746976650000000000000000600082015250565b6000612700601883611a44565b915061270b826126ca565b602082019050919050565b6000602082019050818103600083015261272f816126f3565b9050919050565b50565b60006127466000836120da565b915061275182612736565b600082019050919050565b600061276782612739565b9150819050919050565b7f73656e64206661696c6564000000000000000000000000000000000000000000600082015250565b60006127a7600b83611a44565b91506127b282612771565b602082019050919050565b600060208201905081810360008301526127d68161279a565b905091905056fea2646970667358221220f0da18f9e17b40c9113fffd024abaa051a402923bdee194a105e047a94c9ef0264736f6c634300080a0033",
  "immutableReferences": {},
  "source": "pragma solidity ^0.8.10;\npragma experimental ABIEncoderV2; \n\n//03/15 time worked: 1835 hours -- 2013 hours \n//03/16 time worked: 1801 -- 2038 hours \n//03/17 time worked: 1757 --\n\n\ncontract RockPaperScissors {\n\n    //contract should keep track of infinite # of games //DONE\n\n    //each have a unique ID - mapping -> game uint to struct //DONE \n\n    //once each player has gone, the game will resolve and no more moves can be played \n\n    //48 hr limit per turn //DONE \n\n    //to play, both players have to send eth to the contract //DONE \n\n    //it should be impossible for one player to see what the other has done --> store player1 move as hash + secret_key //DONE\n\n    //when a game finishes, winner takes all //DONE \n\n    //if draw then each player can only withdraw 50% of their deposit amount \n    //the remaining 50% gets added to the next pot //DONE\n\n    //should contain unit testing (gross) --> fuzzing, mutation, etc (???) //GROSS \n\n    //rock = 1; paper = 2; scissors = 3; \n    struct Game {\n        uint local_id; //stores each game locally so mulitple can be played at once\n        bool is_active;\n\t\tbool accepted; //lets player1 know that player2 has moved  \n        address player1;\n        uint player1_move; //a hashed secret move (stored as a uint)  \n        address player2;\n        string player2_move; //not hashed, no need since the game resolves after player2 moves  uint pot; //the size of the pot\n        uint timer; //timer is stores locally as well  \n\t\tuint pot; \n\t\tuint rollover_pot; \n        address winner; //to read for later if needed  \n    }\n\n\n    mapping(uint => Game) public games;\n    mapping(address => uint) public balances;\n\tmapping(address => bool) public in_game; \n    uint public global_id;  \n    uint min_bet;\n\n    constructor() {\n        min_bet = 1 ether;\n    }\n\n\n    function deposit() external payable {\n        require(msg.value == min_bet, \"not enough ether to enter the game\"); //I think this evaluates to 1e18?  \n\n        balances[msg.sender] += msg.value;\n\n        //I believe call is the current best way to do this?    \n        (bool sent, ) = address(this).call{value: msg.value}(\"\");\n        require(sent == true, \"send failed\");\n\n    }\n\n\tfunction withdraw() external payable {\n\t\trequire(balances[msg.sender] > 0, \"no balance to withdraw\"); \n\t\trequire(in_game[msg.sender] == false, \"can't withdraw while in a game\"); \n\t\trequire(msg.value <= balances[msg.sender]);  \n\t\t\n\t\t//balances are updated at eval \t\n\t\tpayable(msg.sender).transfer(msg.value); \t\n\t}\n\n\t//the player you're challenging, your move, a secret key, and rollover game id from a previous game, if any \n    function start_game(address player2, string memory move, uint64 secret_key, uint rollover_id) external {\n        //increment global game count  \n        global_id++;\n\n        require(games[global_id].is_active == false, \"game is already active\");\n        require(balances[msg.sender] >= min_bet, \"balance too low to start a game\");\n\n\t\tuint pot_size = 1 ether;  \n\t\t//check if there is rollover from a draw \n\t\tif (rollover_id != 0) {\n\t\t\trequire(msg.sender == games[rollover_id].player1 || msg.sender == games[rollover_id].player2 && \n\t\t\t\t\tplayer2 == games[rollover_id].player2 || player2 == games[rollover_id].player1); \n\n\t\t\tpot_size += games[rollover_id].rollover_pot; \n\t\t}\t\n\n        update_game(global_id, msg.sender, player2, pot_size);\n\t\t\n\n        //assign the move to the game id \n        store_move(global_id, move, secret_key);\n\n        //start timer after we check if ether sent, if challenged player does not accept then we send the ether back to the player \n        games[global_id].timer = block.timestamp;\n\t\tin_game[msg.sender] = true; \n    }\n\n    function accept(uint game_id, string memory move) external {\n        require(balances[msg.sender] >= min_bet, \"not enough ether to enter the game\");\n        require(msg.sender != games[game_id].player1, \"can't play against yourself dummy\"); \n\t\trequire(msg.sender == games[game_id].player2, \"not the correct player2\"); \n\n        uint time_remaining = check_timer(game_id); //check to see that the timer is not over the 48 hour mark  \n        require(games[game_id].is_active == true, \"game is no longer active\");\n\t\t\n\t\t//player 2's move does not need to be secret since they are going second \n\t\tgames[game_id].player2_move = move;\n\t\tgames[game_id].accepted = true; \t\n\t\tgames[game_id].pot += min_bet; //update by 1 ether  \n\t\tin_game[msg.sender] = true; \n    }\n\n\tfunction eval_winner(uint game_id, string memory move, uint64 secret_key) external {\n\t\trequire(games[game_id].accepted == true);\t\n\t\trequire(msg.sender == games[game_id].player1, \"only player 1 can reveal the outcome\"); \n\t\trequire( \n\t\t\t\tuint(keccak256(abi.encodePacked(move, secret_key))) == games[game_id].player1_move,\n\t\t\t\t\"reveal not equal to commit\"\n\t\t\t   ); \n\n\t\t\t   address player1 = games[game_id].player1;\n\t\t\t   address player2 = games[game_id].player2;\n\n\t\t\t   bytes memory eval = bytes.concat(bytes(move), bytes(games[game_id].player2_move));\n\n\t\t\t  address winner;\n\t\t\t\t\n\t\t\t  //check the encoded bytes to see who won \n\t\t\t  if(keccak256(eval) == keccak256(bytes(\"rockrock\")) || \n\t\t\t\tkeccak256(eval) == keccak256(bytes(\"paperpaper\")) || \n\t\t\t\tkeccak256(eval) == keccak256(bytes(\"scissorsscissors\"))) {\n\n\t\t\t\t\twinner = address(0);\n\n\t\t\t\t\t//half of pot rolls over, half is left to send back to p1 and p2 \n\t\t\t\t\tuint half = (games[game_id].pot * 50) / 100;\n\t\t\t\t\t//update by half of pot in case there is more than one rollover pot \n\t\t\t\t\tgames[game_id].pot = half; \n\t\t\t\t\tbalances[player1] -= (half * 50) / 100; \n\t\t\t\t\tbalances[player2] -= (half * 50) / 100; \n\n\t\t\t\t\tgames[game_id].rollover_pot = half; \n\n\t\t\t  } else if \n\t\t\t\t(keccak256(eval) == keccak256(bytes(\"rockscissors\")) || \n\t\t\t \tkeccak256(eval) == keccak256(bytes(\"scissorspaper\")) || \n\t\t\t\tkeccak256(eval) == keccak256(bytes(\"paperrock\"))) {\n\n\t\t\t\t\twinner = player1;  \n\t\t\t\t\tbalances[player1] += games[game_id].pot; \n\t\t\t\t\tbalances[player2] -= 1 ether; \n\n\n\t\t\t  } else if \n\t\t\t\t(keccak256(eval) == keccak256(bytes(\"paperscissors\")) || \n\t\t\t \tkeccak256(eval) == keccak256(bytes(\"rockpaper\")) || \n\t\t\t\tkeccak256(eval) == keccak256(bytes(\"scissorsrock\"))) {\n\n\t\t\t\t\twinner = player2;  \n\t\t\t\t\tbalances[player2] += games[game_id].pot; \n\t\t\t\t\tbalances[player1] -= 1 ether; \n\n\t\t\t\t}\n\t\t\t\t\n\t\t\t\t//final game update that closes out the game\n\t\t\t\tgames[game_id].winner = winner; \n\t\t\t\tgames[game_id].is_active = false; \n\t\t\t\tin_game[player1] = false; \n\t\t\t\tin_game[player2] = false; \n\t}\n\n    function store_move(uint game_id, string memory move, uint64 secret_key) internal {\n        //we store the move + a random uint as a keccak256 to avoid the move being able to be seen \n        games[game_id].player1_move = uint(keccak256(abi.encodePacked(move, secret_key)));\n    }\n\n    //update struct in another func \n    function update_game(uint game_id,\n                         address p1,\n                         address p2,\n                         uint pot_size) internal {\n\n                        games[game_id].local_id = game_id;\n                        games[game_id].is_active = true;\n                        games[game_id].player1 = p1;\n                        games[game_id].player2 = p2;\n                        games[game_id].pot += pot_size;\n    }\n\n    function check_timer(uint game_id) public returns(uint time_remaining) {\n\n        uint start_time = games[game_id].timer;\n        uint end_time = start_time + 48 hours;\n        if (block.timestamp > end_time) {\n            time_remaining = 0;\n            games[game_id].is_active = false;\n\t\t\tgames[game_id].winner = address(this); //just set to anything other than p1, p2, or 0 address so p1 can withdraw \n        } else {\n            time_remaining =  end_time - block.timestamp;\n        }\n\n        return time_remaining;\n    }\n\n    receive() external payable {}\n\n    fallback() external payable {}\n\n\n\n}\n\n",
  "sourcePath": "/home/kevin/Code/solidity_projects/lindy_labs/contracts/rps.sol",
  "compiler": {
    "name": "solc",
    "version": "0.8.10+commit.fc410830.Emscripten.clang"
  },
  "schemaVersion": "3.4.3",
  "updatedAt": "2022-03-17T23:36:36.698Z",
  "networkType": "ethereum",
  "devdoc": {
    "kind": "dev",
    "methods": {},
    "version": 1
  },
  "userdoc": {
    "kind": "user",
    "methods": {},
    "version": 1
  }
}